{
  "contractName": "MerkleTreeWithHistoryMock",
  "abi": [
    {
      "inputs": [
        {
          "internalType": "uint32",
          "name": "_treeLevels",
          "type": "uint32"
        }
      ],
      "payable": false,
      "stateMutability": "nonpayable",
      "type": "constructor"
    },
    {
      "constant": true,
      "inputs": [],
      "name": "FIELD_SIZE",
      "outputs": [
        {
          "internalType": "uint256",
          "name": "",
          "type": "uint256"
        }
      ],
      "payable": false,
      "stateMutability": "view",
      "type": "function"
    },
    {
      "constant": true,
      "inputs": [],
      "name": "ROOT_HISTORY_SIZE",
      "outputs": [
        {
          "internalType": "uint32",
          "name": "",
          "type": "uint32"
        }
      ],
      "payable": false,
      "stateMutability": "view",
      "type": "function"
    },
    {
      "constant": true,
      "inputs": [],
      "name": "ZERO_VALUE",
      "outputs": [
        {
          "internalType": "uint256",
          "name": "",
          "type": "uint256"
        }
      ],
      "payable": false,
      "stateMutability": "view",
      "type": "function"
    },
    {
      "constant": true,
      "inputs": [],
      "name": "currentRootIndex",
      "outputs": [
        {
          "internalType": "uint32",
          "name": "",
          "type": "uint32"
        }
      ],
      "payable": false,
      "stateMutability": "view",
      "type": "function"
    },
    {
      "constant": true,
      "inputs": [
        {
          "internalType": "uint256",
          "name": "",
          "type": "uint256"
        }
      ],
      "name": "filledSubtrees",
      "outputs": [
        {
          "internalType": "bytes32",
          "name": "",
          "type": "bytes32"
        }
      ],
      "payable": false,
      "stateMutability": "view",
      "type": "function"
    },
    {
      "constant": true,
      "inputs": [],
      "name": "getLastRoot",
      "outputs": [
        {
          "internalType": "bytes32",
          "name": "",
          "type": "bytes32"
        }
      ],
      "payable": false,
      "stateMutability": "view",
      "type": "function"
    },
    {
      "constant": true,
      "inputs": [
        {
          "internalType": "bytes32",
          "name": "_left",
          "type": "bytes32"
        },
        {
          "internalType": "bytes32",
          "name": "_right",
          "type": "bytes32"
        }
      ],
      "name": "hashLeftRight",
      "outputs": [
        {
          "internalType": "bytes32",
          "name": "",
          "type": "bytes32"
        }
      ],
      "payable": false,
      "stateMutability": "pure",
      "type": "function"
    },
    {
      "constant": true,
      "inputs": [
        {
          "internalType": "bytes32",
          "name": "_root",
          "type": "bytes32"
        }
      ],
      "name": "isKnownRoot",
      "outputs": [
        {
          "internalType": "bool",
          "name": "",
          "type": "bool"
        }
      ],
      "payable": false,
      "stateMutability": "view",
      "type": "function"
    },
    {
      "constant": true,
      "inputs": [],
      "name": "levels",
      "outputs": [
        {
          "internalType": "uint32",
          "name": "",
          "type": "uint32"
        }
      ],
      "payable": false,
      "stateMutability": "view",
      "type": "function"
    },
    {
      "constant": true,
      "inputs": [],
      "name": "nextIndex",
      "outputs": [
        {
          "internalType": "uint32",
          "name": "",
          "type": "uint32"
        }
      ],
      "payable": false,
      "stateMutability": "view",
      "type": "function"
    },
    {
      "constant": true,
      "inputs": [
        {
          "internalType": "uint256",
          "name": "",
          "type": "uint256"
        }
      ],
      "name": "roots",
      "outputs": [
        {
          "internalType": "bytes32",
          "name": "",
          "type": "bytes32"
        }
      ],
      "payable": false,
      "stateMutability": "view",
      "type": "function"
    },
    {
      "constant": true,
      "inputs": [
        {
          "internalType": "uint256",
          "name": "",
          "type": "uint256"
        }
      ],
      "name": "zeros",
      "outputs": [
        {
          "internalType": "bytes32",
          "name": "",
          "type": "bytes32"
        }
      ],
      "payable": false,
      "stateMutability": "view",
      "type": "function"
    },
    {
      "constant": false,
      "inputs": [
        {
          "internalType": "bytes32",
          "name": "_leaf",
          "type": "bytes32"
        }
      ],
      "name": "insert",
      "outputs": [],
      "payable": false,
      "stateMutability": "nonpayable",
      "type": "function"
    }
  ],
  "bytecode": "0x6080604052600380546001600160401b031916905534801561002057600080fd5b50604051610bf4380380610bf48339818101604052602081101561004357600080fd5b50518063ffffffff81166100885760405162461bcd60e51b8152600401808060200182810382526027815260200180610b6b6027913960400191505060405180910390fd5b60208163ffffffff16106100cd5760405162461bcd60e51b8152600401808060200182810382526022815260200180610bb26022913960400191505060405180910390fd5b6000805463ffffffff191663ffffffff83161781556002805460018181019092557f2fe54c60d3acabf3343a35b6eba15db4821b340f76e741e2249685ed4899af6c600080516020610b2a8339815191529091018190558154808301835592829052600080516020610bd48339815191529092018290555b60005463ffffffff90811690821610156101b35761016c82806001600160e01b036101d316565b600280546001818101909255600080516020610b2a83398151915201829055805480820182556000829052600080516020610bd48339815191520182905590925001610145565b506101c781806001600160e01b036101d316565b600455506103b4915050565b6000600080516020610b928339815191528310610237576040805162461bcd60e51b815260206004820181905260248201527f5f6c6566742073686f756c6420626520696e7369646520746865206669656c64604482015290519081900360640190fd5b600080516020610b9283398151915282106102835760405162461bcd60e51b8152600401808060200182810382526021815260200180610b4a6021913960400191505060405180910390fd5b6040805163f47d33b560e01b81526004810185905260006024820181905282518693919273__Hasher________________________________9263f47d33b592604480840193829003018186803b1580156102dd57600080fd5b505af41580156102f1573d6000803e3d6000fd5b505050506040513d604081101561030757600080fd5b5080516020909101519092509050600080516020610b92833981519152848308915073__Hasher________________________________63f47d33b583836040518363ffffffff1660e01b81526004018083815260200182815260200192505050604080518083038186803b15801561037f57600080fd5b505af4158015610393573d6000803e3d6000fd5b505050506040513d60408110156103a957600080fd5b505195945050505050565b610767806103c36000396000f3fe608060405234801561001057600080fd5b50600436106100cf5760003560e01c8063ba70f7571161008c578063e829558811610066578063e8295588146101b7578063ec732959146101d4578063f178e47c146101dc578063fc7e9c6f146101f9576100cf565b8063ba70f7571461018a578063c2b40ae414610192578063cd87a3b4146101af576100cf565b80632d287e43146100d457806338bf282e146100f3578063414a37ba146101285780634ecf518b146101305780636d9833e31461015157806390eeb02b14610182575b600080fd5b6100f1600480360360208110156100ea57600080fd5b5035610201565b005b6101166004803603604081101561010957600080fd5b508035906020013561020e565b60408051918252519081900360200190f35b6101166103ef565b610138610401565b6040805163ffffffff9092168252519081900360200190f35b61016e6004803603602081101561016757600080fd5b503561040d565b604080519115158252519081900360200190f35b610138610480565b61011661048c565b610116600480360360208110156101a857600080fd5b50356104ac565b6101386104c0565b610116600480360360208110156101cd57600080fd5b50356104c5565b6101166104e3565b610116600480360360208110156101f257600080fd5b5035610507565b610138610514565b61020a81610528565b5050565b60006000805160206107138339815191528310610272576040805162461bcd60e51b815260206004820181905260248201527f5f6c6566742073686f756c6420626520696e7369646520746865206669656c64604482015290519081900360640190fd5b60008051602061071383398151915282106102be5760405162461bcd60e51b81526004018080602001828103825260218152602001806106f26021913960400191505060405180910390fd5b6040805163f47d33b560e01b81526004810185905260006024820181905282518693919273__Hasher________________________________9263f47d33b592604480840193829003018186803b15801561031857600080fd5b505af415801561032c573d6000803e3d6000fd5b505050506040513d604081101561034257600080fd5b5080516020909101519092509050600080516020610713833981519152848308915073__Hasher________________________________63f47d33b583836040518363ffffffff1660e01b81526004018083815260200182815260200192505050604080518083038186803b1580156103ba57600080fd5b505af41580156103ce573d6000803e3d6000fd5b505050506040513d60408110156103e457600080fd5b505195945050505050565b60008051602061071383398151915281565b60005463ffffffff1681565b60008161041c5750600061047b565b60035463ffffffff165b60048163ffffffff166064811061043957fe5b015483141561044c57600191505061047b565b63ffffffff811661045b575060645b6003546000199091019063ffffffff808316911614156104265760009150505b919050565b60035463ffffffff1681565b60035460009060049063ffffffff16606481106104a557fe5b0154905090565b600481606481106104b957fe5b0154905081565b606481565b600281815481106104d257fe5b600091825260209091200154905081565b7f2fe54c60d3acabf3343a35b6eba15db4821b340f76e741e2249685ed4899af6c81565b600181815481106104d257fe5b600354640100000000900463ffffffff1681565b60035460008054909163ffffffff640100000000909104811691811660020a168114156105865760405162461bcd60e51b815260040180806020018281038252602f8152602001806106c3602f913960400191505060405180910390fd5b6003805463ffffffff64010000000080830482166001019091160267ffffffff000000001990911617905582600080805b60005463ffffffff908116908216101561065f576001851661061b5783925060028163ffffffff16815481106105e957fe5b906000526020600020015491508360018263ffffffff168154811061060a57fe5b60009182526020909120015561063f565b60018163ffffffff168154811061062e57fe5b906000526020600020015492508391505b610649838361020e565b9350600263ffffffff86160494506001016105b7565b5060035460649063ffffffff908116600101166003805463ffffffff19169290910663ffffffff9081169290921790819055849160049116606481106106a157fe5b01555050600354640100000000900463ffffffff166000190194935050505056fe4d65726b6c6520747265652069732066756c6c2e204e6f206d6f7265206c656166732063616e2062652061646465645f72696768742073686f756c6420626520696e7369646520746865206669656c6430644e72e131a029b85045b68181585d2833e84879b9709143e1f593f0000001a265627a7a723158206f5d06499c20ca8bad081554e920fefe9f22157504cb6ccbcc2da20a303034e264736f6c63430005110032405787fa12a823e0f2b7631cc41b3ba8828b3321ca811111fa75cd3aa3bb5ace5f72696768742073686f756c6420626520696e7369646520746865206669656c645f747265654c6576656c732073686f756c642062652067726561746572207468616e207a65726f30644e72e131a029b85045b68181585d2833e84879b9709143e1f593f00000015f747265654c6576656c732073686f756c64206265206c657373207468616e203332b10e2d527612073b26eecdfd717e6a320cf44b4afac2b0732d9fcbe2b7fa0cf6",
  "source": "pragma solidity 0.5.17;\r\n\r\nimport '../MerkleTreeWithHistory.sol';\r\n\r\ncontract MerkleTreeWithHistoryMock is MerkleTreeWithHistory {\r\n\r\n  constructor (uint32 _treeLevels) MerkleTreeWithHistory(_treeLevels) public {}\r\n\r\n  function insert(bytes32 _leaf) public {\r\n      _insert(_leaf);\r\n  }\r\n}\r\n",
  "sourcePath": "c:/Users/kaikr_000/Desktop/upwork/portfolio/tornado-core/contracts/Mocks/MerkleTreeWithHistoryMock.sol",
  "compiler": {
    "name": "solc",
    "version": "0.5.17+commit.d19bba13.Emscripten.clang"
  },
  "schemaVersion": "3.0.18",
  "updatedAt": "2020-07-05T10:01:45.806Z",
  "devdoc": {
    "methods": {
      "getLastRoot()": {
        "details": "Returns the last root"
      },
      "hashLeftRight(bytes32,bytes32)": {
        "details": "Hash 2 tree leaves, returns MiMC(_left, _right)"
      },
      "isKnownRoot(bytes32)": {
        "details": "Whether the root is present in the root history"
      }
    }
  },
  "userdoc": {
    "methods": {}
  }
}